{
  "_format": "hh-sol-artifact-1",
  "contractName": "Traits",
  "sourceName": "contracts/Traits.sol",
  "abi": [
    {
      "inputs": [],
      "stateMutability": "nonpayable",
      "type": "constructor"
    },
    {
      "inputs": [
        {
          "internalType": "address",
          "name": "owner",
          "type": "address"
        }
      ],
      "name": "OwnableInvalidOwner",
      "type": "error"
    },
    {
      "inputs": [
        {
          "internalType": "address",
          "name": "account",
          "type": "address"
        }
      ],
      "name": "OwnableUnauthorizedAccount",
      "type": "error"
    },
    {
      "anonymous": false,
      "inputs": [
        {
          "indexed": true,
          "internalType": "address",
          "name": "previousOwner",
          "type": "address"
        },
        {
          "indexed": true,
          "internalType": "address",
          "name": "newOwner",
          "type": "address"
        }
      ],
      "name": "OwnershipTransferred",
      "type": "event"
    },
    {
      "inputs": [
        {
          "internalType": "uint256",
          "name": "tokenId",
          "type": "uint256"
        }
      ],
      "name": "compileAttributes",
      "outputs": [
        {
          "internalType": "string",
          "name": "",
          "type": "string"
        }
      ],
      "stateMutability": "view",
      "type": "function"
    },
    {
      "inputs": [
        {
          "internalType": "uint256",
          "name": "tokenId",
          "type": "uint256"
        }
      ],
      "name": "drawSVG",
      "outputs": [
        {
          "internalType": "string",
          "name": "",
          "type": "string"
        }
      ],
      "stateMutability": "view",
      "type": "function"
    },
    {
      "inputs": [],
      "name": "nft",
      "outputs": [
        {
          "internalType": "contract IDogVsCat",
          "name": "",
          "type": "address"
        }
      ],
      "stateMutability": "view",
      "type": "function"
    },
    {
      "inputs": [],
      "name": "owner",
      "outputs": [
        {
          "internalType": "address",
          "name": "",
          "type": "address"
        }
      ],
      "stateMutability": "view",
      "type": "function"
    },
    {
      "inputs": [],
      "name": "renounceOwnership",
      "outputs": [],
      "stateMutability": "nonpayable",
      "type": "function"
    },
    {
      "inputs": [
        {
          "internalType": "uint16",
          "name": "seed",
          "type": "uint16"
        },
        {
          "internalType": "uint8",
          "name": "traitType",
          "type": "uint8"
        }
      ],
      "name": "selectTrait",
      "outputs": [
        {
          "internalType": "uint8",
          "name": "",
          "type": "uint8"
        }
      ],
      "stateMutability": "view",
      "type": "function"
    },
    {
      "inputs": [
        {
          "internalType": "address",
          "name": "_nft",
          "type": "address"
        }
      ],
      "name": "setNft",
      "outputs": [],
      "stateMutability": "nonpayable",
      "type": "function"
    },
    {
      "inputs": [
        {
          "internalType": "uint8[]",
          "name": "_tType",
          "type": "uint8[]"
        },
        {
          "internalType": "uint8[]",
          "name": "_len",
          "type": "uint8[]"
        }
      ],
      "name": "setTraitCountForType",
      "outputs": [],
      "stateMutability": "nonpayable",
      "type": "function"
    },
    {
      "inputs": [
        {
          "internalType": "string",
          "name": "_unrevealedTokenURI",
          "type": "string"
        }
      ],
      "name": "setUnrevealedTokenURI",
      "outputs": [],
      "stateMutability": "nonpayable",
      "type": "function"
    },
    {
      "inputs": [
        {
          "internalType": "uint256",
          "name": "tokenId",
          "type": "uint256"
        }
      ],
      "name": "tokenURI",
      "outputs": [
        {
          "internalType": "string",
          "name": "",
          "type": "string"
        }
      ],
      "stateMutability": "view",
      "type": "function"
    },
    {
      "inputs": [
        {
          "internalType": "uint8",
          "name": "",
          "type": "uint8"
        }
      ],
      "name": "traitCountForType",
      "outputs": [
        {
          "internalType": "uint8",
          "name": "",
          "type": "uint8"
        }
      ],
      "stateMutability": "view",
      "type": "function"
    },
    {
      "inputs": [
        {
          "internalType": "uint8",
          "name": "",
          "type": "uint8"
        },
        {
          "internalType": "uint8",
          "name": "",
          "type": "uint8"
        }
      ],
      "name": "traitData",
      "outputs": [
        {
          "internalType": "string",
          "name": "name",
          "type": "string"
        },
        {
          "internalType": "string",
          "name": "png",
          "type": "string"
        }
      ],
      "stateMutability": "view",
      "type": "function"
    },
    {
      "inputs": [
        {
          "internalType": "address",
          "name": "newOwner",
          "type": "address"
        }
      ],
      "name": "transferOwnership",
      "outputs": [],
      "stateMutability": "nonpayable",
      "type": "function"
    },
    {
      "inputs": [],
      "name": "unrevealedTokenURI",
      "outputs": [
        {
          "internalType": "string",
          "name": "",
          "type": "string"
        }
      ],
      "stateMutability": "view",
      "type": "function"
    },
    {
      "inputs": [
        {
          "internalType": "uint8",
          "name": "traitType",
          "type": "uint8"
        },
        {
          "internalType": "uint8[]",
          "name": "traitIds",
          "type": "uint8[]"
        },
        {
          "components": [
            {
              "internalType": "string",
              "name": "name",
              "type": "string"
            },
            {
              "internalType": "string",
              "name": "png",
              "type": "string"
            }
          ],
          "internalType": "struct Traits.Trait[]",
          "name": "traits",
          "type": "tuple[]"
        }
      ],
      "name": "uploadTraits",
      "outputs": [],
      "stateMutability": "nonpayable",
      "type": "function"
    }
  ],
  "bytecode": "0x608060405260086001556040518060a001604052806040518060400160405280600a81526020017f4261636b67726f756e640000000000000000000000000000000000000000000081525081526020016040518060400160405280600981526020017f4163636573736f7279000000000000000000000000000000000000000000000081525081526020016040518060400160405280600481526020017f426f64790000000000000000000000000000000000000000000000000000000081525081526020016040518060400160405280600681526020017f576561706f6e000000000000000000000000000000000000000000000000000081525081526020016040518060400160405280600481526020017f486561640000000000000000000000000000000000000000000000000000000081525081525060029060056200014b929190620003cb565b5060405180608001604052806040518060400160405280600181526020017f380000000000000000000000000000000000000000000000000000000000000081525081526020016040518060400160405280600181526020017f370000000000000000000000000000000000000000000000000000000000000081525081526020016040518060400160405280600181526020017f360000000000000000000000000000000000000000000000000000000000000081525081526020016040518060400160405280600181526020017f3500000000000000000000000000000000000000000000000000000000000000815250815250600d906004620002539291906200041e565b503480156200026157600080fd5b5062000272620002ff60201b60201c565b600073ffffffffffffffffffffffffffffffffffffffff168173ffffffffffffffffffffffffffffffffffffffff1603620002e75760006040517f1e4fbdf7000000000000000000000000000000000000000000000000000000008152600401620002de919062000543565b60405180910390fd5b620002f8816200030760201b60201c565b50620008c1565b600033905090565b60008060009054906101000a900473ffffffffffffffffffffffffffffffffffffffff169050816000806101000a81548173ffffffffffffffffffffffffffffffffffffffff021916908373ffffffffffffffffffffffffffffffffffffffff1602179055508173ffffffffffffffffffffffffffffffffffffffff168173ffffffffffffffffffffffffffffffffffffffff167f8be0079c531659141344cd1fd0a4f28419497f9722a3daafe3b4186f6b6457e060405160405180910390a35050565b82600981019282156200040b579160200282015b828111156200040a578251829081620003f99190620007da565b5091602001919060010190620003df565b5b5090506200041a919062000471565b5090565b82600481019282156200045e579160200282015b828111156200045d5782518290816200044c9190620007da565b509160200191906001019062000432565b5b5090506200046d919062000471565b5090565b5b808211156200049557600081816200048b919062000499565b5060010162000472565b5090565b508054620004a790620005c9565b6000825580601f10620004bb5750620004dc565b601f016020900490600052602060002090810190620004db9190620004df565b5b50565b5b80821115620004fa576000816000905550600101620004e0565b5090565b600073ffffffffffffffffffffffffffffffffffffffff82169050919050565b60006200052b82620004fe565b9050919050565b6200053d816200051e565b82525050565b60006020820190506200055a600083018462000532565b92915050565b600081519050919050565b7f4e487b7100000000000000000000000000000000000000000000000000000000600052604160045260246000fd5b7f4e487b7100000000000000000000000000000000000000000000000000000000600052602260045260246000fd5b60006002820490506001821680620005e257607f821691505b602082108103620005f857620005f76200059a565b5b50919050565b60008190508160005260206000209050919050565b60006020601f8301049050919050565b600082821b905092915050565b600060088302620006627fffffffffffffffffffffffffffffffffffffffffffffffffffffffffffffffff8262000623565b6200066e868362000623565b95508019841693508086168417925050509392505050565b6000819050919050565b6000819050919050565b6000620006bb620006b5620006af8462000686565b62000690565b62000686565b9050919050565b6000819050919050565b620006d7836200069a565b620006ef620006e682620006c2565b84845462000630565b825550505050565b600090565b62000706620006f7565b62000713818484620006cc565b505050565b5b818110156200073b576200072f600082620006fc565b60018101905062000719565b5050565b601f8211156200078a576200075481620005fe565b6200075f8462000613565b810160208510156200076f578190505b620007876200077e8562000613565b83018262000718565b50505b505050565b600082821c905092915050565b6000620007af600019846008026200078f565b1980831691505092915050565b6000620007ca83836200079c565b9150826002028217905092915050565b620007e58262000560565b67ffffffffffffffff8111156200080157620008006200056b565b5b6200080d8254620005c9565b6200081a8282856200073f565b600060209050601f8311600181146200085257600084156200083d578287015190505b620008498582620007bc565b865550620008b9565b601f1984166200086286620005fe565b60005b828110156200088c5784890151825560018201915060208501945060208101905062000865565b86831015620008ac5784890151620008a8601f8916826200079c565b8355505b6001600288020188555050505b505050505050565b614d4c80620008d16000396000f3fe608060405234801561001057600080fd5b50600436106100f45760003560e01c80639bf2ee3511610097578063d93ae3d911610066578063d93ae3d914610286578063ee7bd58b146102a2578063f2fde38b146102d2578063f3c13387146102ee576100f4565b80639bf2ee35146101d7578063a6b0969214610208578063b2873d5c14610238578063c87b56dd14610256576100f4565b8063715018a6116100d3578063715018a6146101635780637abecb861461016d578063820de0c51461019d5780638da5cb5b146101b9576100f4565b8062ecbfd1146100f957806347ccca021461011557806368dba5e514610133575b600080fd5b610113600480360381019061010e919061339f565b61030a565b005b61011d61039c565b60405161012a9190613496565b60405180910390f35b61014d600480360381019061014891906134e7565b6103c2565b60405161015a9190613593565b60405180910390f35b61016b610622565b005b610187600480360381019061018291906134e7565b610636565b6040516101949190613593565b60405180910390f35b6101b760048036038101906101b2919061366a565b61141f565b005b6101c161143a565b6040516101ce91906136d4565b60405180910390f35b6101f160048036038101906101ec91906136ef565b611463565b6040516101ff92919061372f565b60405180910390f35b610222600480360381019061021d91906137a0565b6115a4565b60405161022f91906137ef565b60405180910390f35b61024061164e565b60405161024d9190613593565b60405180910390f35b610270600480360381019061026b91906134e7565b6116dc565b60405161027d9190613593565b60405180910390f35b6102a0600480360381019061029b91906138bb565b6118b1565b005b6102bc60048036038101906102b79190613950565b611ab1565b6040516102c991906137ef565b60405180910390f35b6102ec60048036038101906102e791906139a9565b611ad1565b005b610308600480360381019061030391906139a9565b611b57565b005b610312611ba3565b60005b825181101561039757818181518110610331576103306139d6565b5b6020026020010151600c60008584815181106103505761034f6139d6565b5b602002602001015160ff1660ff16815260200190815260200160002060006101000a81548160ff021916908360ff160217905550808061038f90613a34565b915050610315565b505050565b601160009054906101000a900473ffffffffffffffffffffffffffffffffffffffff1681565b60606000601160009054906101000a900473ffffffffffffffffffffffffffffffffffffffff1673ffffffffffffffffffffffffffffffffffffffff166394e56847846040518263ffffffff1660e01b81526004016104219190613a8b565b61010060405180830381865afa15801561043f573d6000803e3d6000fd5b505050506040513d601f19601f820116820180604052508101906104639190613bc2565b9050600061047084611c2a565b905080601160009054906101000a900473ffffffffffffffffffffffffffffffffffffffff1673ffffffffffffffffffffffffffffffffffffffff1663c084f5406040518163ffffffff1660e01b8152600401602060405180830381865afa1580156104e0573d6000803e3d6000fd5b505050506040513d601f19601f820116820180604052508101906105049190613c05565b851115610546576040518060400160405280600781526020017f2247656e2031220000000000000000000000000000000000000000000000000081525061057d565b6040518060400160405280600781526020017f2247656e203022000000000000000000000000000000000000000000000000008152505b83600001516105c1576040518060400160405280600481526020017f224e6f22000000000000000000000000000000000000000000000000000000008152506105f8565b6040518060400160405280600581526020017f22596573220000000000000000000000000000000000000000000000000000008152505b60405160200161060a93929190613dea565b60405160208183030381529060405292505050919050565b61062a611ba3565b6106346000612bb7565b565b60606000601160009054906101000a900473ffffffffffffffffffffffffffffffffffffffff1673ffffffffffffffffffffffffffffffffffffffff166394e56847846040518263ffffffff1660e01b81526004016106959190613a8b565b61010060405180830381865afa1580156106b3573d6000803e3d6000fd5b505050506040513d601f19601f820116820180604052508101906106d79190613bc2565b90506000604051806020016040528060008152509050816020015115610e2d5761085f600b60008060ff1681526020019081526020016000206000846040015160ff1660ff16815260200190815260200160002060405180604001604052908160008201805461074690613e76565b80601f016020809104026020016040519081016040528092919081815260200182805461077290613e76565b80156107bf5780601f10610794576101008083540402835291602001916107bf565b820191906000526020600020905b8154815290600101906020018083116107a257829003601f168201915b505050505081526020016001820180546107d890613e76565b80601f016020809104026020016040519081016040528092919081815260200182805461080490613e76565b80156108515780601f1061082657610100808354040283529160200191610851565b820191906000526020600020905b81548152906001019060200180831161083457829003601f168201915b505050505081525050612c7b565b6109c8600b6000600160ff1681526020019081526020016000206000856060015160ff1660ff1681526020019081526020016000206040518060400160405290816000820180546108af90613e76565b80601f01602080910402602001604051908101604052809291908181526020018280546108db90613e76565b80156109285780601f106108fd57610100808354040283529160200191610928565b820191906000526020600020905b81548152906001019060200180831161090b57829003601f168201915b5050505050815260200160018201805461094190613e76565b80601f016020809104026020016040519081016040528092919081815260200182805461096d90613e76565b80156109ba5780601f1061098f576101008083540402835291602001916109ba565b820191906000526020600020905b81548152906001019060200180831161099d57829003601f168201915b505050505081525050612c7b565b610b31600b6000600260ff1681526020019081526020016000206000866080015160ff1660ff168152602001908152602001600020604051806040016040529081600082018054610a1890613e76565b80601f0160208091040260200160405190810160405280929190818152602001828054610a4490613e76565b8015610a915780601f10610a6657610100808354040283529160200191610a91565b820191906000526020600020905b815481529060010190602001808311610a7457829003601f168201915b50505050508152602001600182018054610aaa90613e76565b80601f0160208091040260200160405190810160405280929190818152602001828054610ad690613e76565b8015610b235780601f10610af857610100808354040283529160200191610b23565b820191906000526020600020905b815481529060010190602001808311610b0657829003601f168201915b505050505081525050612c7b565b610c9a600b6000600360ff16815260200190815260200160002060008760a0015160ff1660ff168152602001908152602001600020604051806040016040529081600082018054610b8190613e76565b80601f0160208091040260200160405190810160405280929190818152602001828054610bad90613e76565b8015610bfa5780601f10610bcf57610100808354040283529160200191610bfa565b820191906000526020600020905b815481529060010190602001808311610bdd57829003601f168201915b50505050508152602001600182018054610c1390613e76565b80601f0160208091040260200160405190810160405280929190818152602001828054610c3f90613e76565b8015610c8c5780601f10610c6157610100808354040283529160200191610c8c565b820191906000526020600020905b815481529060010190602001808311610c6f57829003601f168201915b505050505081525050612c7b565b610e03600b6000600460ff16815260200190815260200160002060008860c0015160ff1660ff168152602001908152602001600020604051806040016040529081600082018054610cea90613e76565b80601f0160208091040260200160405190810160405280929190818152602001828054610d1690613e76565b8015610d635780601f10610d3857610100808354040283529160200191610d63565b820191906000526020600020905b815481529060010190602001808311610d4657829003601f168201915b50505050508152602001600182018054610d7c90613e76565b80601f0160208091040260200160405190810160405280929190818152602001828054610da890613e76565b8015610df55780601f10610dca57610100808354040283529160200191610df5565b820191906000526020600020905b815481529060010190602001808311610dd857829003601f168201915b505050505081525050612c7b565b604051602001610e17959493929190613ea7565b60405160208183030381529060405290506113f6565b610f96600b6000600560ff1681526020019081526020016000206000846040015160ff1660ff168152602001908152602001600020604051806040016040529081600082018054610e7d90613e76565b80601f0160208091040260200160405190810160405280929190818152602001828054610ea990613e76565b8015610ef65780601f10610ecb57610100808354040283529160200191610ef6565b820191906000526020600020905b815481529060010190602001808311610ed957829003601f168201915b50505050508152602001600182018054610f0f90613e76565b80601f0160208091040260200160405190810160405280929190818152602001828054610f3b90613e76565b8015610f885780601f10610f5d57610100808354040283529160200191610f88565b820191906000526020600020905b815481529060010190602001808311610f6b57829003601f168201915b505050505081525050612c7b565b6110ff600b6000600660ff1681526020019081526020016000206000856060015160ff1660ff168152602001908152602001600020604051806040016040529081600082018054610fe690613e76565b80601f016020809104026020016040519081016040528092919081815260200182805461101290613e76565b801561105f5780601f106110345761010080835404028352916020019161105f565b820191906000526020600020905b81548152906001019060200180831161104257829003601f168201915b5050505050815260200160018201805461107890613e76565b80601f01602080910402602001604051908101604052809291908181526020018280546110a490613e76565b80156110f15780601f106110c6576101008083540402835291602001916110f1565b820191906000526020600020905b8154815290600101906020018083116110d457829003601f168201915b505050505081525050612c7b565b611268600b6000600760ff1681526020019081526020016000206000866080015160ff1660ff16815260200190815260200160002060405180604001604052908160008201805461114f90613e76565b80601f016020809104026020016040519081016040528092919081815260200182805461117b90613e76565b80156111c85780601f1061119d576101008083540402835291602001916111c8565b820191906000526020600020905b8154815290600101906020018083116111ab57829003601f168201915b505050505081526020016001820180546111e190613e76565b80601f016020809104026020016040519081016040528092919081815260200182805461120d90613e76565b801561125a5780601f1061122f5761010080835404028352916020019161125a565b820191906000526020600020905b81548152906001019060200180831161123d57829003601f168201915b505050505081525050612c7b565b6113d1600b6000600860ff16815260200190815260200160002060008760e0015160ff1660ff1681526020019081526020016000206040518060400160405290816000820180546112b890613e76565b80601f01602080910402602001604051908101604052809291908181526020018280546112e490613e76565b80156113315780601f1061130657610100808354040283529160200191611331565b820191906000526020600020905b81548152906001019060200180831161131457829003601f168201915b5050505050815260200160018201805461134a90613e76565b80601f016020809104026020016040519081016040528092919081815260200182805461137690613e76565b80156113c35780601f10611398576101008083540402835291602001916113c3565b820191906000526020600020905b8154815290600101906020018083116113a657829003601f168201915b505050505081525050612c7b565b6040516020016113e49493929190613ef2565b60405160208183030381529060405290505b806040516020016114079190614060565b60405160208183030381529060405292505050919050565b611427611ba3565b8060129081611436919061422f565b5050565b60008060009054906101000a900473ffffffffffffffffffffffffffffffffffffffff16905090565b600b6020528160005260406000206020528060005260406000206000915091505080600001805461149390613e76565b80601f01602080910402602001604051908101604052809291908181526020018280546114bf90613e76565b801561150c5780601f106114e15761010080835404028352916020019161150c565b820191906000526020600020905b8154815290600101906020018083116114ef57829003601f168201915b50505050509080600101805461152190613e76565b80601f016020809104026020016040519081016040528092919081815260200182805461154d90613e76565b801561159a5780601f1061156f5761010080835404028352916020019161159a565b820191906000526020600020905b81548152906001019060200180831161157d57829003601f168201915b5050505050905082565b60006001548260ff160361160a5760006064846115c19190614330565b61ffff169050605f8111156115da576000915050611648565b60508111156115ed576001915050611648565b6032811115611600576002915050611648565b6003915050611648565b6000600c60008460ff1660ff16815260200190815260200160002060009054906101000a900460ff1690508060ff16846116449190614330565b9150505b92915050565b6012805461165b90613e76565b80601f016020809104026020016040519081016040528092919081815260200182805461168790613e76565b80156116d45780601f106116a9576101008083540402835291602001916116d4565b820191906000526020600020905b8154815290600101906020018083116116b757829003601f168201915b505050505081565b60606000601160009054906101000a900473ffffffffffffffffffffffffffffffffffffffff1673ffffffffffffffffffffffffffffffffffffffff166394e56847846040518263ffffffff1660e01b815260040161173b9190613a8b565b61010060405180830381865afa158015611759573d6000803e3d6000fd5b505050506040513d601f19601f8201168201806040525081019061177d9190613bc2565b9050600081600001516117c5576040518060400160405280600c81526020017f556e72657665616c656420230000000000000000000000000000000000000000815250611841565b8160200151611809576040518060400160405280600581526020017f4361742023000000000000000000000000000000000000000000000000000000815250611840565b6040518060400160405280600581526020017f446f6720230000000000000000000000000000000000000000000000000000008152505b5b61184a85612ca8565b61185386612d76565b61185c876103c2565b60405160200161186f94939291906145c4565b604051602081830303815290604052905061188981612eee565b604051602001611899919061467a565b60405160208183030381529060405292505050919050565b6118b9611ba3565b818190508484905014611901576040517f08c379a00000000000000000000000000000000000000000000000000000000081526004016118f8906146e8565b60405180910390fd5b60005b82829050811015611aa957604051806040016040528084848481811061192d5761192c6139d6565b5b905060200281019061193f9190614717565b806000019061194e919061473f565b8080601f016020809104026020016040519081016040528093929190818152602001838380828437600081840152601f19601f8201169050808301925050505050505081526020018484848181106119a9576119a86139d6565b5b90506020028101906119bb9190614717565b80602001906119ca919061473f565b8080601f016020809104026020016040519081016040528093929190818152602001838380828437600081840152601f19601f82011690508083019250505050505050815250600b60008860ff1660ff1681526020019081526020016000206000878785818110611a3e57611a3d6139d6565b5b9050602002016020810190611a539190613950565b60ff1660ff1681526020019081526020016000206000820151816000019081611a7c919061422f565b506020820151816001019081611a92919061422f565b509050508080611aa190613a34565b915050611904565b505050505050565b600c6020528060005260406000206000915054906101000a900460ff1681565b611ad9611ba3565b600073ffffffffffffffffffffffffffffffffffffffff168173ffffffffffffffffffffffffffffffffffffffff1603611b4b5760006040517f1e4fbdf7000000000000000000000000000000000000000000000000000000008152600401611b4291906136d4565b60405180910390fd5b611b5481612bb7565b50565b611b5f611ba3565b80601160006101000a81548173ffffffffffffffffffffffffffffffffffffffff021916908373ffffffffffffffffffffffffffffffffffffffff16021790555050565b611bab613072565b73ffffffffffffffffffffffffffffffffffffffff16611bc961143a565b73ffffffffffffffffffffffffffffffffffffffff1614611c2857611bec613072565b6040517f118cdaa7000000000000000000000000000000000000000000000000000000008152600401611c1f91906136d4565b60405180910390fd5b565b60606000601160009054906101000a900473ffffffffffffffffffffffffffffffffffffffff1673ffffffffffffffffffffffffffffffffffffffff166394e56847846040518263ffffffff1660e01b8152600401611c899190613a8b565b61010060405180830381865afa158015611ca7573d6000803e3d6000fd5b505050506040513d601f19601f82011682018060405250810190611ccb9190613bc2565b90508060000151611cee5760405180602001604052806000815250915050612bb2565b80602001511561257857611d6c6040518060400160405280600481526020017f54797065000000000000000000000000000000000000000000000000000000008152506040518060400160405280600381526020017f446f67000000000000000000000000000000000000000000000000000000000081525061307a565b611efe6002600060098110611d8457611d836139d6565b5b018054611d9090613e76565b80601f0160208091040260200160405190810160405280929190818152602001828054611dbc90613e76565b8015611e095780601f10611dde57610100808354040283529160200191611e09565b820191906000526020600020905b815481529060010190602001808311611dec57829003601f168201915b5050505050600b60008060ff1681526020019081526020016000206000600c60008060ff16815260200190815260200160002060009054906101000a900460ff168660400151611e5991906147a2565b60ff1660ff1681526020019081526020016000206000018054611e7b90613e76565b80601f0160208091040260200160405190810160405280929190818152602001828054611ea790613e76565b8015611ef45780601f10611ec957610100808354040283529160200191611ef4565b820191906000526020600020905b815481529060010190602001808311611ed757829003601f168201915b505050505061307a565b6120926002600160098110611f1657611f156139d6565b5b018054611f2290613e76565b80601f0160208091040260200160405190810160405280929190818152602001828054611f4e90613e76565b8015611f9b5780601f10611f7057610100808354040283529160200191611f9b565b820191906000526020600020905b815481529060010190602001808311611f7e57829003601f168201915b5050505050600b6000600160ff1681526020019081526020016000206000600c6000600160ff16815260200190815260200160002060009054906101000a900460ff168760600151611fed91906147a2565b60ff1660ff168152602001908152602001600020600001805461200f90613e76565b80601f016020809104026020016040519081016040528092919081815260200182805461203b90613e76565b80156120885780601f1061205d57610100808354040283529160200191612088565b820191906000526020600020905b81548152906001019060200180831161206b57829003601f168201915b505050505061307a565b612225600280600981106120a9576120a86139d6565b5b0180546120b590613e76565b80601f01602080910402602001604051908101604052809291908181526020018280546120e190613e76565b801561212e5780601f106121035761010080835404028352916020019161212e565b820191906000526020600020905b81548152906001019060200180831161211157829003601f168201915b5050505050600b6000600260ff1681526020019081526020016000206000600c6000600260ff16815260200190815260200160002060009054906101000a900460ff16886080015161218091906147a2565b60ff1660ff16815260200190815260200160002060000180546121a290613e76565b80601f01602080910402602001604051908101604052809291908181526020018280546121ce90613e76565b801561221b5780601f106121f05761010080835404028352916020019161221b565b820191906000526020600020905b8154815290600101906020018083116121fe57829003601f168201915b505050505061307a565b6123b9600260036009811061223d5761223c6139d6565b5b01805461224990613e76565b80601f016020809104026020016040519081016040528092919081815260200182805461227590613e76565b80156122c25780601f10612297576101008083540402835291602001916122c2565b820191906000526020600020905b8154815290600101906020018083116122a557829003601f168201915b5050505050600b6000600360ff1681526020019081526020016000206000600c6000600360ff16815260200190815260200160002060009054906101000a900460ff168960a0015161231491906147a2565b60ff1660ff168152602001908152602001600020600001805461233690613e76565b80601f016020809104026020016040519081016040528092919081815260200182805461236290613e76565b80156123af5780601f10612384576101008083540402835291602001916123af565b820191906000526020600020905b81548152906001019060200180831161239257829003601f168201915b505050505061307a565b61254d60026004600981106123d1576123d06139d6565b5b0180546123dd90613e76565b80601f016020809104026020016040519081016040528092919081815260200182805461240990613e76565b80156124565780601f1061242b57610100808354040283529160200191612456565b820191906000526020600020905b81548152906001019060200180831161243957829003601f168201915b5050505050600b6000600460ff1681526020019081526020016000206000600c6000600460ff16815260200190815260200160002060009054906101000a900460ff168a60c001516124a891906147a2565b60ff1660ff16815260200190815260200160002060000180546124ca90613e76565b80601f01602080910402602001604051908101604052809291908181526020018280546124f690613e76565b80156125435780601f1061251857610100808354040283529160200191612543565b820191906000526020600020905b81548152906001019060200180831161252657829003601f168201915b505050505061307a565b6040516020016125629695949392919061481f565b6040516020818303038152906040529150612bb0565b6125ec6040518060400160405280600481526020017f54797065000000000000000000000000000000000000000000000000000000008152506040518060400160405280600381526020017f436174000000000000000000000000000000000000000000000000000000000081525061307a565b6127806002600060098110612604576126036139d6565b5b01805461261090613e76565b80601f016020809104026020016040519081016040528092919081815260200182805461263c90613e76565b80156126895780601f1061265e57610100808354040283529160200191612689565b820191906000526020600020905b81548152906001019060200180831161266c57829003601f168201915b5050505050600b6000600560ff1681526020019081526020016000206000600c6000600560ff16815260200190815260200160002060009054906101000a900460ff1686604001516126db91906147a2565b60ff1660ff16815260200190815260200160002060000180546126fd90613e76565b80601f016020809104026020016040519081016040528092919081815260200182805461272990613e76565b80156127765780601f1061274b57610100808354040283529160200191612776565b820191906000526020600020905b81548152906001019060200180831161275957829003601f168201915b505050505061307a565b6129146002600160098110612798576127976139d6565b5b0180546127a490613e76565b80601f01602080910402602001604051908101604052809291908181526020018280546127d090613e76565b801561281d5780601f106127f25761010080835404028352916020019161281d565b820191906000526020600020905b81548152906001019060200180831161280057829003601f168201915b5050505050600b6000600660ff1681526020019081526020016000206000600c6000600660ff16815260200190815260200160002060009054906101000a900460ff16876060015161286f91906147a2565b60ff1660ff168152602001908152602001600020600001805461289190613e76565b80601f01602080910402602001604051908101604052809291908181526020018280546128bd90613e76565b801561290a5780601f106128df5761010080835404028352916020019161290a565b820191906000526020600020905b8154815290600101906020018083116128ed57829003601f168201915b505050505061307a565b612aa76002806009811061292b5761292a6139d6565b5b01805461293790613e76565b80601f016020809104026020016040519081016040528092919081815260200182805461296390613e76565b80156129b05780601f10612985576101008083540402835291602001916129b0565b820191906000526020600020905b81548152906001019060200180831161299357829003601f168201915b5050505050600b6000600760ff1681526020019081526020016000206000600c6000600760ff16815260200190815260200160002060009054906101000a900460ff168860800151612a0291906147a2565b60ff1660ff1681526020019081526020016000206000018054612a2490613e76565b80601f0160208091040260200160405190810160405280929190818152602001828054612a5090613e76565b8015612a9d5780601f10612a7257610100808354040283529160200191612a9d565b820191906000526020600020905b815481529060010190602001808311612a8057829003601f168201915b505050505061307a565b612b8a6040518060400160405280600b81526020017f416c7068612053636f7265000000000000000000000000000000000000000000815250600d8760e0015160ff1660048110612afb57612afa6139d6565b5b018054612b0790613e76565b80601f0160208091040260200160405190810160405280929190818152602001828054612b3390613e76565b8015612b805780601f10612b5557610100808354040283529160200191612b80565b820191906000526020600020905b815481529060010190602001808311612b6357829003601f168201915b505050505061307a565b604051602001612b9e9594939291906148b9565b60405160208183030381529060405291505b505b919050565b60008060009054906101000a900473ffffffffffffffffffffffffffffffffffffffff169050816000806101000a81548173ffffffffffffffffffffffffffffffffffffffff021916908373ffffffffffffffffffffffffffffffffffffffff1602179055508173ffffffffffffffffffffffffffffffffffffffff168173ffffffffffffffffffffffffffffffffffffffff167f8be0079c531659141344cd1fd0a4f28419497f9722a3daafe3b4186f6b6457e060405160405180910390a35050565b60608160200151604051602001612c929190614a6b565b6040516020818303038152906040529050919050565b606060006001612cb7846130a6565b01905060008167ffffffffffffffff811115612cd657612cd5613223565b5b6040519080825280601f01601f191660200182016040528015612d085781602001600182028036833780820191505090505b509050600082602001820190505b600115612d6b578080600190039150507f3031323334353637383961626364656600000000000000000000000000000000600a86061a8153600a8581612d5f57612d5e614301565b5b04945060008503612d16575b819350505050919050565b60606000601160009054906101000a900473ffffffffffffffffffffffffffffffffffffffff1673ffffffffffffffffffffffffffffffffffffffff166394e56847846040518263ffffffff1660e01b8152600401612dd59190613a8b565b61010060405180830381865afa158015612df3573d6000803e3d6000fd5b505050506040513d601f19601f82011682018060405250810190612e179190613bc2565b90508060000151612eb55760128054612e2f90613e76565b80601f0160208091040260200160405190810160405280929190818152602001828054612e5b90613e76565b8015612ea85780601f10612e7d57610100808354040283529160200191612ea8565b820191906000526020600020905b815481529060010190602001808311612e8b57829003601f168201915b5050505050915050612ee9565b612ec6612ec184610636565b612eee565b604051602001612ed69190614ae4565b6040516020818303038152906040529150505b919050565b60606000825103612f105760405180602001604052806000815250905061306d565b6000604051806060016040528060408152602001614cd76040913990506000600360028551612f3f9190614b06565b612f499190614b3a565b6004612f559190614b6b565b90506000602082612f669190614b06565b67ffffffffffffffff811115612f7f57612f7e613223565b5b6040519080825280601f01601f191660200182016040528015612fb15781602001600182028036833780820191505090505b509050818152600183018586518101602084015b8183101561302c576003830192508251603f8160121c1685015160f81b8252600182019150603f81600c1c1685015160f81b8252600182019150603f8160061c1685015160f81b8252600182019150603f811685015160f81b825260018201915050612fc5565b600389510660018114613046576002811461305657613061565b613d3d60f01b6002830352613061565b603d60f81b60018303525b50505050508093505050505b919050565b600033905090565b6060828260405160200161308f929190614c91565b604051602081830303815290604052905092915050565b600080600090507a184f03e93ff9f4daa797ed6e38ed64bf6a1f0100000000000000008310613104577a184f03e93ff9f4daa797ed6e38ed64bf6a1f01000000000000000083816130fa576130f9614301565b5b0492506040810190505b6d04ee2d6d415b85acef81000000008310613141576d04ee2d6d415b85acef8100000000838161313757613136614301565b5b0492506020810190505b662386f26fc10000831061317057662386f26fc10000838161316657613165614301565b5b0492506010810190505b6305f5e1008310613199576305f5e100838161318f5761318e614301565b5b0492506008810190505b61271083106131be5761271083816131b4576131b3614301565b5b0492506004810190505b606483106131e157606483816131d7576131d6614301565b5b0492506002810190505b600a83106131f0576001810190505b80915050919050565b6000604051905090565b600080fd5b600080fd5b600080fd5b6000601f19601f8301169050919050565b7f4e487b7100000000000000000000000000000000000000000000000000000000600052604160045260246000fd5b61325b82613212565b810181811067ffffffffffffffff8211171561327a57613279613223565b5b80604052505050565b600061328d6131f9565b90506132998282613252565b919050565b600067ffffffffffffffff8211156132b9576132b8613223565b5b602082029050602081019050919050565b600080fd5b600060ff82169050919050565b6132e5816132cf565b81146132f057600080fd5b50565b600081359050613302816132dc565b92915050565b600061331b6133168461329e565b613283565b9050808382526020820190506020840283018581111561333e5761333d6132ca565b5b835b81811015613367578061335388826132f3565b845260208401935050602081019050613340565b5050509392505050565b600082601f8301126133865761338561320d565b5b8135613396848260208601613308565b91505092915050565b600080604083850312156133b6576133b5613203565b5b600083013567ffffffffffffffff8111156133d4576133d3613208565b5b6133e085828601613371565b925050602083013567ffffffffffffffff81111561340157613400613208565b5b61340d85828601613371565b9150509250929050565b600073ffffffffffffffffffffffffffffffffffffffff82169050919050565b6000819050919050565b600061345c61345761345284613417565b613437565b613417565b9050919050565b600061346e82613441565b9050919050565b600061348082613463565b9050919050565b61349081613475565b82525050565b60006020820190506134ab6000830184613487565b92915050565b6000819050919050565b6134c4816134b1565b81146134cf57600080fd5b50565b6000813590506134e1816134bb565b92915050565b6000602082840312156134fd576134fc613203565b5b600061350b848285016134d2565b91505092915050565b600081519050919050565b600082825260208201905092915050565b60005b8381101561354e578082015181840152602081019050613533565b60008484015250505050565b600061356582613514565b61356f818561351f565b935061357f818560208601613530565b61358881613212565b840191505092915050565b600060208201905081810360008301526135ad818461355a565b905092915050565b600080fd5b600067ffffffffffffffff8211156135d5576135d4613223565b5b6135de82613212565b9050602081019050919050565b82818337600083830152505050565b600061360d613608846135ba565b613283565b905082815260208101848484011115613629576136286135b5565b5b6136348482856135eb565b509392505050565b600082601f8301126136515761365061320d565b5b81356136618482602086016135fa565b91505092915050565b6000602082840312156136805761367f613203565b5b600082013567ffffffffffffffff81111561369e5761369d613208565b5b6136aa8482850161363c565b91505092915050565b60006136be82613417565b9050919050565b6136ce816136b3565b82525050565b60006020820190506136e960008301846136c5565b92915050565b6000806040838503121561370657613705613203565b5b6000613714858286016132f3565b9250506020613725858286016132f3565b9150509250929050565b60006040820190508181036000830152613749818561355a565b9050818103602083015261375d818461355a565b90509392505050565b600061ffff82169050919050565b61377d81613766565b811461378857600080fd5b50565b60008135905061379a81613774565b92915050565b600080604083850312156137b7576137b6613203565b5b60006137c58582860161378b565b92505060206137d6858286016132f3565b9150509250929050565b6137e9816132cf565b82525050565b600060208201905061380460008301846137e0565b92915050565b600080fd5b60008083601f8401126138255761382461320d565b5b8235905067ffffffffffffffff8111156138425761384161380a565b5b60208301915083602082028301111561385e5761385d6132ca565b5b9250929050565b60008083601f84011261387b5761387a61320d565b5b8235905067ffffffffffffffff8111156138985761389761380a565b5b6020830191508360208202830111156138b4576138b36132ca565b5b9250929050565b6000806000806000606086880312156138d7576138d6613203565b5b60006138e5888289016132f3565b955050602086013567ffffffffffffffff81111561390657613905613208565b5b6139128882890161380f565b9450945050604086013567ffffffffffffffff81111561393557613934613208565b5b61394188828901613865565b92509250509295509295909350565b60006020828403121561396657613965613203565b5b6000613974848285016132f3565b91505092915050565b613986816136b3565b811461399157600080fd5b50565b6000813590506139a38161397d565b92915050565b6000602082840312156139bf576139be613203565b5b60006139cd84828501613994565b91505092915050565b7f4e487b7100000000000000000000000000000000000000000000000000000000600052603260045260246000fd5b7f4e487b7100000000000000000000000000000000000000000000000000000000600052601160045260246000fd5b6000613a3f826134b1565b91507fffffffffffffffffffffffffffffffffffffffffffffffffffffffffffffffff8203613a7157613a70613a05565b5b600182019050919050565b613a85816134b1565b82525050565b6000602082019050613aa06000830184613a7c565b92915050565b600080fd5b60008115159050919050565b613ac081613aab565b8114613acb57600080fd5b50565b600081519050613add81613ab7565b92915050565b600081519050613af2816132dc565b92915050565b60006101008284031215613b0f57613b0e613aa6565b5b613b1a610100613283565b90506000613b2a84828501613ace565b6000830152506020613b3e84828501613ace565b6020830152506040613b5284828501613ae3565b6040830152506060613b6684828501613ae3565b6060830152506080613b7a84828501613ae3565b60808301525060a0613b8e84828501613ae3565b60a08301525060c0613ba284828501613ae3565b60c08301525060e0613bb684828501613ae3565b60e08301525092915050565b60006101008284031215613bd957613bd8613203565b5b6000613be784828501613af8565b91505092915050565b600081519050613bff816134bb565b92915050565b600060208284031215613c1b57613c1a613203565b5b6000613c2984828501613bf0565b91505092915050565b600081905092915050565b7f5b00000000000000000000000000000000000000000000000000000000000000600082015250565b6000613c73600183613c32565b9150613c7e82613c3d565b600182019050919050565b6000613c9482613514565b613c9e8185613c32565b9350613cae818560208601613530565b80840191505092915050565b7f7b2274726169745f74797065223a2247656e65726174696f6e222c2276616c7560008201527f65223a0000000000000000000000000000000000000000000000000000000000602082015250565b6000613d16602383613c32565b9150613d2182613cba565b602382019050919050565b7f7d2c7b2274726169745f74797065223a2249732052657665616c6564222c227660008201527f616c7565223a0000000000000000000000000000000000000000000000000000602082015250565b6000613d88602683613c32565b9150613d9382613d2c565b602682019050919050565b7f7d5d000000000000000000000000000000000000000000000000000000000000600082015250565b6000613dd4600283613c32565b9150613ddf82613d9e565b600282019050919050565b6000613df582613c66565b9150613e018286613c89565b9150613e0c82613d09565b9150613e188285613c89565b9150613e2382613d7b565b9150613e2f8284613c89565b9150613e3a82613dc7565b9150819050949350505050565b7f4e487b7100000000000000000000000000000000000000000000000000000000600052602260045260246000fd5b60006002820490506001821680613e8e57607f821691505b602082108103613ea157613ea0613e47565b5b50919050565b6000613eb38288613c89565b9150613ebf8287613c89565b9150613ecb8286613c89565b9150613ed78285613c89565b9150613ee38284613c89565b91508190509695505050505050565b6000613efe8287613c89565b9150613f0a8286613c89565b9150613f168285613c89565b9150613f228284613c89565b915081905095945050505050565b7f3c7376672069643d22636174222077696474683d22313030252220686569676860008201527f743d2231303025222076657273696f6e3d22312e31222076696577426f783d2260208201527f30203020323030203230302220786d6c6e733d22687474703a2f2f7777772e7760408201527f332e6f72672f323030302f7376672220786d6c6e733a786c696e6b3d2268747460608201527f703a2f2f7777772e77332e6f72672f313939392f786c696e6b223e0000000000608082015250565b6000613ffe609b83613c32565b915061400982613f30565b609b82019050919050565b7f3c2f7376673e0000000000000000000000000000000000000000000000000000600082015250565b600061404a600683613c32565b915061405582614014565b600682019050919050565b600061406b82613ff1565b91506140778284613c89565b91506140828261403d565b915081905092915050565b60008190508160005260206000209050919050565b60006020601f8301049050919050565b600082821b905092915050565b6000600883026140ef7fffffffffffffffffffffffffffffffffffffffffffffffffffffffffffffffff826140b2565b6140f986836140b2565b95508019841693508086168417925050509392505050565b600061412c614127614122846134b1565b613437565b6134b1565b9050919050565b6000819050919050565b61414683614111565b61415a61415282614133565b8484546140bf565b825550505050565b600090565b61416f614162565b61417a81848461413d565b505050565b5b8181101561419e57614193600082614167565b600181019050614180565b5050565b601f8211156141e3576141b48161408d565b6141bd846140a2565b810160208510156141cc578190505b6141e06141d8856140a2565b83018261417f565b50505b505050565b600082821c905092915050565b6000614206600019846008026141e8565b1980831691505092915050565b600061421f83836141f5565b9150826002028217905092915050565b61423882613514565b67ffffffffffffffff81111561425157614250613223565b5b61425b8254613e76565b6142668282856141a2565b600060209050601f8311600181146142995760008415614287578287015190505b6142918582614213565b8655506142f9565b601f1984166142a78661408d565b60005b828110156142cf578489015182556001820191506020850194506020810190506142aa565b868310156142ec57848901516142e8601f8916826141f5565b8355505b6001600288020188555050505b505050505050565b7f4e487b7100000000000000000000000000000000000000000000000000000000600052601260045260246000fd5b600061433b82613766565b915061434683613766565b92508261435657614355614301565b5b828206905092915050565b7f7b226e616d65223a202200000000000000000000000000000000000000000000600082015250565b6000614397600a83613c32565b91506143a282614361565b600a82019050919050565b7f222c20226465736372697074696f6e223a202254686f7573616e6473206f662060008201527f646f677320616e64204361747320636f6d70657465206f6e2061206661726d2060208201527f696e20746865206d65746176657273652e20412074656d7074696e672070726960408201527f7a65206f662024547265617473206177616974732c207769746820646561646c60608201527f792068696768207374616b65732e20416c6c20746865206d657461646174612060808201527f616e6420696d61676573206172652067656e65726174656420616e642073746f60a08201527f7265642031303025206f6e2d636861696e2e204e6f20495046532e204e4f204160c08201527f50492e204a75737420746865204176616c616e63686520626c6f636b6368616960e08201527f6e2e222c2022696d616765223a2022000000000000000000000000000000000061010082015250565b600061451561010f83613c32565b9150614520826143ad565b61010f82019050919050565b7f222c202261747472696275746573223a00000000000000000000000000000000600082015250565b6000614562601083613c32565b915061456d8261452c565b601082019050919050565b7f7d00000000000000000000000000000000000000000000000000000000000000600082015250565b60006145ae600183613c32565b91506145b982614578565b600182019050919050565b60006145cf8261438a565b91506145db8287613c89565b91506145e78286613c89565b91506145f282614507565b91506145fe8285613c89565b915061460982614555565b91506146158284613c89565b9150614620826145a1565b915081905095945050505050565b7f646174613a6170706c69636174696f6e2f6a736f6e3b6261736536342c000000600082015250565b6000614664601d83613c32565b915061466f8261462e565b601d82019050919050565b600061468582614657565b91506146918284613c89565b915081905092915050565b7f4d69736d61746368656420696e70757473000000000000000000000000000000600082015250565b60006146d260118361351f565b91506146dd8261469c565b602082019050919050565b60006020820190508181036000830152614701816146c5565b9050919050565b600080fd5b600080fd5b600080fd5b60008235600160400383360303811261473357614732614708565b5b80830191505092915050565b6000808335600160200384360303811261475c5761475b614708565b5b80840192508235915067ffffffffffffffff82111561477e5761477d61470d565b5b60208301925060018202360383131561479a57614799614712565b5b509250929050565b60006147ad826132cf565b91506147b8836132cf565b9250826147c8576147c7614301565b5b828206905092915050565b7f2c00000000000000000000000000000000000000000000000000000000000000600082015250565b6000614809600183613c32565b9150614814826147d3565b600182019050919050565b600061482b8289613c89565b9150614836826147fc565b91506148428288613c89565b915061484d826147fc565b91506148598287613c89565b9150614864826147fc565b91506148708286613c89565b915061487b826147fc565b91506148878285613c89565b9150614892826147fc565b915061489e8284613c89565b91506148a9826147fc565b9150819050979650505050505050565b60006148c58288613c89565b91506148d0826147fc565b91506148dc8287613c89565b91506148e7826147fc565b91506148f38286613c89565b91506148fe826147fc565b915061490a8285613c89565b9150614915826147fc565b91506149218284613c89565b915061492c826147fc565b91508190509695505050505050565b7f3c696d61676520783d22302220793d2230222077696474683d2232303022206860008201527f65696768743d223230302220696d6167652d72656e646572696e673d2270697860208201527f656c6174656422207072657365727665417370656374526174696f3d22784d6960408201527f64594d69642220786c696e6b3a687265663d22646174613a696d6167652f706e60608201527f673b6261736536342c0000000000000000000000000000000000000000000000608082015250565b6000614a09608983613c32565b9150614a148261493b565b608982019050919050565b7f222f3e0000000000000000000000000000000000000000000000000000000000600082015250565b6000614a55600383613c32565b9150614a6082614a1f565b600382019050919050565b6000614a76826149fc565b9150614a828284613c89565b9150614a8d82614a48565b915081905092915050565b7f646174613a696d6167652f7376672b786d6c3b6261736536342c000000000000600082015250565b6000614ace601a83613c32565b9150614ad982614a98565b601a82019050919050565b6000614aef82614ac1565b9150614afb8284613c89565b915081905092915050565b6000614b11826134b1565b9150614b1c836134b1565b9250828201905080821115614b3457614b33613a05565b5b92915050565b6000614b45826134b1565b9150614b50836134b1565b925082614b6057614b5f614301565b5b828204905092915050565b6000614b76826134b1565b9150614b81836134b1565b9250828202614b8f816134b1565b91508282048414831517614ba657614ba5613a05565b5b5092915050565b7f7b2274726169745f74797065223a220000000000000000000000000000000000600082015250565b6000614be3600f83613c32565b9150614bee82614bad565b600f82019050919050565b7f222c2276616c7565223a22000000000000000000000000000000000000000000600082015250565b6000614c2f600b83613c32565b9150614c3a82614bf9565b600b82019050919050565b7f227d000000000000000000000000000000000000000000000000000000000000600082015250565b6000614c7b600283613c32565b9150614c8682614c45565b600282019050919050565b6000614c9c82614bd6565b9150614ca88285613c89565b9150614cb382614c22565b9150614cbf8284613c89565b9150614cca82614c6e565b9150819050939250505056fe4142434445464748494a4b4c4d4e4f505152535455565758595a6162636465666768696a6b6c6d6e6f707172737475767778797a303132333435363738392b2fa2646970667358221220406dc01ca31b889b8a9afa1535c1b7b9c7915a8b3ba9628469a4005174c89b6e64736f6c63430008140033",
  "linkReferences": {},
  "deployedLinkReferences": {}
}